{
  "contractName": "Hello",
  "abi": [
    {
      "anonymous": false,
      "inputs": [
        {
          "indexed": true,
          "internalType": "address",
          "name": "previousOwner",
          "type": "address"
        },
        {
          "indexed": true,
          "internalType": "address",
          "name": "newOwner",
          "type": "address"
        }
      ],
      "name": "OwnershipTransferred",
      "type": "event"
    },
    {
      "inputs": [],
      "name": "owner",
      "outputs": [
        {
          "internalType": "address",
          "name": "",
          "type": "address"
        }
      ],
      "stateMutability": "view",
      "type": "function",
      "constant": true
    },
    {
      "inputs": [],
      "name": "renounceOwnership",
      "outputs": [],
      "stateMutability": "nonpayable",
      "type": "function"
    },
    {
      "inputs": [
        {
          "internalType": "address",
          "name": "newOwner",
          "type": "address"
        }
      ],
      "name": "transferOwnership",
      "outputs": [],
      "stateMutability": "nonpayable",
      "type": "function"
    },
    {
      "inputs": [],
      "name": "greet",
      "outputs": [
        {
          "internalType": "string",
          "name": "",
          "type": "string"
        }
      ],
      "stateMutability": "view",
      "type": "function",
      "constant": true
    },
    {
      "inputs": [
        {
          "internalType": "string",
          "name": "_newGreetie",
          "type": "string"
        }
      ],
      "name": "setGreetie",
      "outputs": [],
      "stateMutability": "nonpayable",
      "type": "function"
    }
  ],
  "bytecode": "0x60806040526040518060400160405280600781526020017f48656c6c6f2c2000000000000000000000000000000000000000000000000000815250600190816200004a91906200040c565b506040518060400160405280600681526020017f576f726c64210000000000000000000000000000000000000000000000000000815250600290816200009191906200040c565b503480156200009f57600080fd5b50620000c0620000b4620000c660201b60201c565b620000ce60201b60201c565b620004f3565b600033905090565b60008060009054906101000a900473ffffffffffffffffffffffffffffffffffffffff169050816000806101000a81548173ffffffffffffffffffffffffffffffffffffffff021916908373ffffffffffffffffffffffffffffffffffffffff1602179055508173ffffffffffffffffffffffffffffffffffffffff168173ffffffffffffffffffffffffffffffffffffffff167f8be0079c531659141344cd1fd0a4f28419497f9722a3daafe3b4186f6b6457e060405160405180910390a35050565b600081519050919050565b7f4e487b7100000000000000000000000000000000000000000000000000000000600052604160045260246000fd5b7f4e487b7100000000000000000000000000000000000000000000000000000000600052602260045260246000fd5b600060028204905060018216806200021457607f821691505b6020821081036200022a5762000229620001cc565b5b50919050565b60008190508160005260206000209050919050565b60006020601f8301049050919050565b600082821b905092915050565b600060088302620002947fffffffffffffffffffffffffffffffffffffffffffffffffffffffffffffffff8262000255565b620002a0868362000255565b95508019841693508086168417925050509392505050565b6000819050919050565b6000819050919050565b6000620002ed620002e7620002e184620002b8565b620002c2565b620002b8565b9050919050565b6000819050919050565b6200030983620002cc565b620003216200031882620002f4565b84845462000262565b825550505050565b600090565b6200033862000329565b62000345818484620002fe565b505050565b5b818110156200036d57620003616000826200032e565b6001810190506200034b565b5050565b601f821115620003bc57620003868162000230565b620003918462000245565b81016020851015620003a1578190505b620003b9620003b08562000245565b8301826200034a565b50505b505050565b600082821c905092915050565b6000620003e160001984600802620003c1565b1980831691505092915050565b6000620003fc8383620003ce565b9150826002028217905092915050565b620004178262000192565b67ffffffffffffffff8111156200043357620004326200019d565b5b6200043f8254620001fb565b6200044c82828562000371565b600060209050601f8311600181146200048457600084156200046f578287015190505b6200047b8582620003ee565b865550620004eb565b601f198416620004948662000230565b60005b82811015620004be5784890151825560018201915060208501945060208101905062000497565b86831015620004de5784890151620004da601f891682620003ce565b8355505b6001600288020188555050505b505050505050565b610a5680620005036000396000f3fe608060405234801561001057600080fd5b50600436106100575760003560e01c8063715018a61461005c5780638da5cb5b14610066578063cfae321714610084578063f2fde38b146100a2578063fe3cb418146100be575b600080fd5b6100646100da565b005b61006e6100ee565b60405161007b919061036e565b60405180910390f35b61008c610117565b6040516100999190610419565b60405180910390f35b6100bc60048036038101906100b79190610471565b610142565b005b6100d860048036038101906100d39190610503565b6101c5565b005b6100e26101e3565b6100ec6000610261565b565b60008060009054906101000a900473ffffffffffffffffffffffffffffffffffffffff16905090565b60606001600260405160200161012e929190610653565b604051602081830303815290604052905090565b61014a6101e3565b600073ffffffffffffffffffffffffffffffffffffffff168173ffffffffffffffffffffffffffffffffffffffff16036101b9576040517f08c379a00000000000000000000000000000000000000000000000000000000081526004016101b0906106e9565b60405180910390fd5b6101c281610261565b50565b6101cd6101e3565b8181600291826101de9291906108e4565b505050565b6101eb610325565b73ffffffffffffffffffffffffffffffffffffffff166102096100ee565b73ffffffffffffffffffffffffffffffffffffffff161461025f576040517f08c379a000000000000000000000000000000000000000000000000000000000815260040161025690610a00565b60405180910390fd5b565b60008060009054906101000a900473ffffffffffffffffffffffffffffffffffffffff169050816000806101000a81548173ffffffffffffffffffffffffffffffffffffffff021916908373ffffffffffffffffffffffffffffffffffffffff1602179055508173ffffffffffffffffffffffffffffffffffffffff168173ffffffffffffffffffffffffffffffffffffffff167f8be0079c531659141344cd1fd0a4f28419497f9722a3daafe3b4186f6b6457e060405160405180910390a35050565b600033905090565b600073ffffffffffffffffffffffffffffffffffffffff82169050919050565b60006103588261032d565b9050919050565b6103688161034d565b82525050565b6000602082019050610383600083018461035f565b92915050565b600081519050919050565b600082825260208201905092915050565b60005b838110156103c35780820151818401526020810190506103a8565b60008484015250505050565b6000601f19601f8301169050919050565b60006103eb82610389565b6103f58185610394565b93506104058185602086016103a5565b61040e816103cf565b840191505092915050565b6000602082019050818103600083015261043381846103e0565b905092915050565b600080fd5b600080fd5b61044e8161034d565b811461045957600080fd5b50565b60008135905061046b81610445565b92915050565b6000602082840312156104875761048661043b565b5b60006104958482850161045c565b91505092915050565b600080fd5b600080fd5b600080fd5b60008083601f8401126104c3576104c261049e565b5b8235905067ffffffffffffffff8111156104e0576104df6104a3565b5b6020830191508360018202830111156104fc576104fb6104a8565b5b9250929050565b6000806020838503121561051a5761051961043b565b5b600083013567ffffffffffffffff81111561053857610537610440565b5b610544858286016104ad565b92509250509250929050565b7f4e487b7100000000000000000000000000000000000000000000000000000000600052602260045260246000fd5b6000600282049050600182168061059757607f821691505b6020821081036105aa576105a9610550565b5b50919050565b600081905092915050565b60008190508160005260206000209050919050565b600081546105dd8161057f565b6105e781866105b0565b9450600182166000811461060257600181146106175761064a565b60ff198316865281151582028601935061064a565b610620856105bb565b60005b8381101561064257815481890152600182019150602081019050610623565b838801955050505b50505092915050565b600061065f82856105d0565b915061066b82846105d0565b91508190509392505050565b7f4f776e61626c653a206e6577206f776e657220697320746865207a65726f206160008201527f6464726573730000000000000000000000000000000000000000000000000000602082015250565b60006106d3602683610394565b91506106de82610677565b604082019050919050565b60006020820190508181036000830152610702816106c6565b9050919050565b600082905092915050565b7f4e487b7100000000000000000000000000000000000000000000000000000000600052604160045260246000fd5b60006020601f8301049050919050565b600082821b905092915050565b6000600883026107907fffffffffffffffffffffffffffffffffffffffffffffffffffffffffffffffff82610753565b61079a8683610753565b95508019841693508086168417925050509392505050565b6000819050919050565b6000819050919050565b60006107e16107dc6107d7846107b2565b6107bc565b6107b2565b9050919050565b6000819050919050565b6107fb836107c6565b61080f610807826107e8565b848454610760565b825550505050565b600090565b610824610817565b61082f8184846107f2565b505050565b5b818110156108535761084860008261081c565b600181019050610835565b5050565b601f82111561089857610869816105bb565b61087284610743565b81016020851015610881578190505b61089561088d85610743565b830182610834565b50505b505050565b600082821c905092915050565b60006108bb6000198460080261089d565b1980831691505092915050565b60006108d483836108aa565b9150826002028217905092915050565b6108ee8383610709565b67ffffffffffffffff81111561090757610906610714565b5b610911825461057f565b61091c828285610857565b6000601f83116001811461094b5760008415610939578287013590505b61094385826108c8565b8655506109ab565b601f198416610959866105bb565b60005b828110156109815784890135825560018201915060208501945060208101905061095c565b8683101561099e578489013561099a601f8916826108aa565b8355505b6001600288020188555050505b50505050505050565b7f4f776e61626c653a2063616c6c6572206973206e6f7420746865206f776e6572600082015250565b60006109ea602083610394565b91506109f5826109b4565b602082019050919050565b60006020820190508181036000830152610a19816109dd565b905091905056fea2646970667358221220c19002d1511a8347219080898afdb891d28a05e82cb620ed21fe87d6b44e9fdf64736f6c63430008110033",
  "immutableReferences": {},
  "source": "// SPDX-License-Identifier: MIT\npragma solidity >=0.4.22 <0.9.0;\nimport \"@openzeppelin/contracts/access/Ownable.sol\";\n\ncontract Hello is Ownable {\n  string private _greeting = \"Hello, \";\n  string private _greetie = \"World!\";\n  function greet() external view returns(string memory){\n    return string(abi.encodePacked(_greeting,_greetie));\n  }\n\n  function setGreetie(string calldata _newGreetie)external onlyOwner{\n    _greetie = _newGreetie;\n  }\n\n}",
  "sourcePath": "D:\\RL\\Bachelor\\Programmieren\\eduDao\\contracts\\Hello.sol",
  "compiler": {
    "name": "solc",
    "version": "0.8.17+commit.8df45f5f.Emscripten.clang"
  },
  "schemaVersion": "3.4.10",
  "updatedAt": "2022-10-26T09:32:13.180Z",
  "networkType": "ethereum",
  "devdoc": {
    "kind": "dev",
    "methods": {
      "owner()": {
        "details": "Returns the address of the current owner."
      },
      "renounceOwnership()": {
        "details": "Leaves the contract without owner. It will not be possible to call `onlyOwner` functions anymore. Can only be called by the current owner. NOTE: Renouncing ownership will leave the contract without an owner, thereby removing any functionality that is only available to the owner."
      },
      "transferOwnership(address)": {
        "details": "Transfers ownership of the contract to a new account (`newOwner`). Can only be called by the current owner."
      }
    },
    "version": 1
  },
  "userdoc": {
    "kind": "user",
    "methods": {},
    "version": 1
  }
}