{
  "_format": "hh-sol-artifact-1",
  "contractName": "GovernanceToken",
  "sourceName": "contracts/GovernanceToken.sol",
  "abi": [
    {
      "inputs": [],
      "stateMutability": "nonpayable",
      "type": "constructor"
    },
    {
      "anonymous": false,
      "inputs": [
        {
          "indexed": true,
          "internalType": "address",
          "name": "owner",
          "type": "address"
        },
        {
          "indexed": true,
          "internalType": "address",
          "name": "spender",
          "type": "address"
        },
        {
          "indexed": false,
          "internalType": "uint256",
          "name": "value",
          "type": "uint256"
        }
      ],
      "name": "Approval",
      "type": "event"
    },
    {
      "anonymous": false,
      "inputs": [
        {
          "indexed": true,
          "internalType": "address",
          "name": "delegator",
          "type": "address"
        },
        {
          "indexed": true,
          "internalType": "address",
          "name": "fromDelegate",
          "type": "address"
        },
        {
          "indexed": true,
          "internalType": "address",
          "name": "toDelegate",
          "type": "address"
        }
      ],
      "name": "DelegateChanged",
      "type": "event"
    },
    {
      "anonymous": false,
      "inputs": [
        {
          "indexed": true,
          "internalType": "address",
          "name": "delegate",
          "type": "address"
        },
        {
          "indexed": false,
          "internalType": "uint256",
          "name": "previousBalance",
          "type": "uint256"
        },
        {
          "indexed": false,
          "internalType": "uint256",
          "name": "newBalance",
          "type": "uint256"
        }
      ],
      "name": "DelegateVotesChanged",
      "type": "event"
    },
    {
      "anonymous": false,
      "inputs": [
        {
          "indexed": true,
          "internalType": "address",
          "name": "from",
          "type": "address"
        },
        {
          "indexed": true,
          "internalType": "address",
          "name": "to",
          "type": "address"
        },
        {
          "indexed": false,
          "internalType": "uint256",
          "name": "value",
          "type": "uint256"
        }
      ],
      "name": "Transfer",
      "type": "event"
    },
    {
      "stateMutability": "nonpayable",
      "type": "fallback"
    },
    {
      "inputs": [],
      "name": "DOMAIN_SEPARATOR",
      "outputs": [
        {
          "internalType": "bytes32",
          "name": "",
          "type": "bytes32"
        }
      ],
      "stateMutability": "view",
      "type": "function"
    },
    {
      "inputs": [
        {
          "internalType": "address",
          "name": "owner",
          "type": "address"
        },
        {
          "internalType": "address",
          "name": "spender",
          "type": "address"
        }
      ],
      "name": "allowance",
      "outputs": [
        {
          "internalType": "uint256",
          "name": "",
          "type": "uint256"
        }
      ],
      "stateMutability": "view",
      "type": "function"
    },
    {
      "inputs": [
        {
          "internalType": "address",
          "name": "spender",
          "type": "address"
        },
        {
          "internalType": "uint256",
          "name": "amount",
          "type": "uint256"
        }
      ],
      "name": "approve",
      "outputs": [
        {
          "internalType": "bool",
          "name": "",
          "type": "bool"
        }
      ],
      "stateMutability": "nonpayable",
      "type": "function"
    },
    {
      "inputs": [
        {
          "internalType": "address",
          "name": "account",
          "type": "address"
        }
      ],
      "name": "balanceOf",
      "outputs": [
        {
          "internalType": "uint256",
          "name": "",
          "type": "uint256"
        }
      ],
      "stateMutability": "view",
      "type": "function"
    },
    {
      "inputs": [
        {
          "internalType": "address",
          "name": "account",
          "type": "address"
        },
        {
          "internalType": "uint32",
          "name": "pos",
          "type": "uint32"
        }
      ],
      "name": "checkpoints",
      "outputs": [
        {
          "components": [
            {
              "internalType": "uint32",
              "name": "fromBlock",
              "type": "uint32"
            },
            {
              "internalType": "uint224",
              "name": "votes",
              "type": "uint224"
            }
          ],
          "internalType": "struct ERC20Votes.Checkpoint",
          "name": "",
          "type": "tuple"
        }
      ],
      "stateMutability": "view",
      "type": "function"
    },
    {
      "inputs": [],
      "name": "decimals",
      "outputs": [
        {
          "internalType": "uint8",
          "name": "",
          "type": "uint8"
        }
      ],
      "stateMutability": "view",
      "type": "function"
    },
    {
      "inputs": [
        {
          "internalType": "address",
          "name": "spender",
          "type": "address"
        },
        {
          "internalType": "uint256",
          "name": "subtractedValue",
          "type": "uint256"
        }
      ],
      "name": "decreaseAllowance",
      "outputs": [
        {
          "internalType": "bool",
          "name": "",
          "type": "bool"
        }
      ],
      "stateMutability": "nonpayable",
      "type": "function"
    },
    {
      "inputs": [
        {
          "internalType": "address",
          "name": "delegatee",
          "type": "address"
        }
      ],
      "name": "delegate",
      "outputs": [],
      "stateMutability": "nonpayable",
      "type": "function"
    },
    {
      "inputs": [
        {
          "internalType": "address",
          "name": "delegatee",
          "type": "address"
        },
        {
          "internalType": "uint256",
          "name": "nonce",
          "type": "uint256"
        },
        {
          "internalType": "uint256",
          "name": "expiry",
          "type": "uint256"
        },
        {
          "internalType": "uint8",
          "name": "v",
          "type": "uint8"
        },
        {
          "internalType": "bytes32",
          "name": "r",
          "type": "bytes32"
        },
        {
          "internalType": "bytes32",
          "name": "s",
          "type": "bytes32"
        }
      ],
      "name": "delegateBySig",
      "outputs": [],
      "stateMutability": "nonpayable",
      "type": "function"
    },
    {
      "inputs": [
        {
          "internalType": "address",
          "name": "account",
          "type": "address"
        }
      ],
      "name": "delegates",
      "outputs": [
        {
          "internalType": "address",
          "name": "",
          "type": "address"
        }
      ],
      "stateMutability": "view",
      "type": "function"
    },
    {
      "inputs": [
        {
          "internalType": "uint256",
          "name": "blockNumber",
          "type": "uint256"
        }
      ],
      "name": "getPastTotalSupply",
      "outputs": [
        {
          "internalType": "uint256",
          "name": "",
          "type": "uint256"
        }
      ],
      "stateMutability": "view",
      "type": "function"
    },
    {
      "inputs": [
        {
          "internalType": "address",
          "name": "account",
          "type": "address"
        },
        {
          "internalType": "uint256",
          "name": "blockNumber",
          "type": "uint256"
        }
      ],
      "name": "getPastVotes",
      "outputs": [
        {
          "internalType": "uint256",
          "name": "",
          "type": "uint256"
        }
      ],
      "stateMutability": "view",
      "type": "function"
    },
    {
      "inputs": [
        {
          "internalType": "address",
          "name": "account",
          "type": "address"
        }
      ],
      "name": "getVotes",
      "outputs": [
        {
          "internalType": "uint256",
          "name": "",
          "type": "uint256"
        }
      ],
      "stateMutability": "view",
      "type": "function"
    },
    {
      "inputs": [
        {
          "internalType": "address",
          "name": "spender",
          "type": "address"
        },
        {
          "internalType": "uint256",
          "name": "addedValue",
          "type": "uint256"
        }
      ],
      "name": "increaseAllowance",
      "outputs": [
        {
          "internalType": "bool",
          "name": "",
          "type": "bool"
        }
      ],
      "stateMutability": "nonpayable",
      "type": "function"
    },
    {
      "inputs": [],
      "name": "name",
      "outputs": [
        {
          "internalType": "string",
          "name": "",
          "type": "string"
        }
      ],
      "stateMutability": "view",
      "type": "function"
    },
    {
      "inputs": [
        {
          "internalType": "address",
          "name": "owner",
          "type": "address"
        }
      ],
      "name": "nonces",
      "outputs": [
        {
          "internalType": "uint256",
          "name": "",
          "type": "uint256"
        }
      ],
      "stateMutability": "view",
      "type": "function"
    },
    {
      "inputs": [
        {
          "internalType": "address",
          "name": "account",
          "type": "address"
        }
      ],
      "name": "numCheckpoints",
      "outputs": [
        {
          "internalType": "uint32",
          "name": "",
          "type": "uint32"
        }
      ],
      "stateMutability": "view",
      "type": "function"
    },
    {
      "inputs": [
        {
          "internalType": "address",
          "name": "owner",
          "type": "address"
        },
        {
          "internalType": "address",
          "name": "spender",
          "type": "address"
        },
        {
          "internalType": "uint256",
          "name": "value",
          "type": "uint256"
        },
        {
          "internalType": "uint256",
          "name": "deadline",
          "type": "uint256"
        },
        {
          "internalType": "uint8",
          "name": "v",
          "type": "uint8"
        },
        {
          "internalType": "bytes32",
          "name": "r",
          "type": "bytes32"
        },
        {
          "internalType": "bytes32",
          "name": "s",
          "type": "bytes32"
        }
      ],
      "name": "permit",
      "outputs": [],
      "stateMutability": "nonpayable",
      "type": "function"
    },
    {
      "inputs": [],
      "name": "s_maxSupply",
      "outputs": [
        {
          "internalType": "uint256",
          "name": "",
          "type": "uint256"
        }
      ],
      "stateMutability": "view",
      "type": "function"
    },
    {
      "inputs": [],
      "name": "symbol",
      "outputs": [
        {
          "internalType": "string",
          "name": "",
          "type": "string"
        }
      ],
      "stateMutability": "view",
      "type": "function"
    },
    {
      "inputs": [],
      "name": "totalSupply",
      "outputs": [
        {
          "internalType": "uint256",
          "name": "",
          "type": "uint256"
        }
      ],
      "stateMutability": "view",
      "type": "function"
    },
    {
      "inputs": [
        {
          "internalType": "address",
          "name": "to",
          "type": "address"
        },
        {
          "internalType": "uint256",
          "name": "amount",
          "type": "uint256"
        }
      ],
      "name": "transfer",
      "outputs": [
        {
          "internalType": "bool",
          "name": "",
          "type": "bool"
        }
      ],
      "stateMutability": "nonpayable",
      "type": "function"
    },
    {
      "inputs": [
        {
          "internalType": "address",
          "name": "from",
          "type": "address"
        },
        {
          "internalType": "address",
          "name": "to",
          "type": "address"
        },
        {
          "internalType": "uint256",
          "name": "amount",
          "type": "uint256"
        }
      ],
      "name": "transferFrom",
      "outputs": [
        {
          "internalType": "bool",
          "name": "",
          "type": "bool"
        }
      ],
      "stateMutability": "nonpayable",
      "type": "function"
    }
  ],
  "bytecode": "0x610140604052620186a0600a553480156200001957600080fd5b506040518060400160405280600f81526020016e23b7bb32b93730b731b2aa37b5b2b760891b81525080604051806040016040528060018152602001603160f81b8152506040518060400160405280600f81526020016e23b7bb32b93730b731b2aa37b5b2b760891b8152506040518060400160405280600281526020016111d560f21b8152508160039081620000b19190620007cb565b506004620000c08282620007cb565b5050825160209384012082519284019290922060e08390526101008190524660a0818152604080517f8b73c3c69bb8fe3d512ecc4cf759cc79239f7b179b0ffacaa9a75d522b39400f818901819052818301979097526060810194909452608080850193909352308483018190528151808603909301835260c094850190915281519190960120905292909252610120525050600a546200016390339062000169565b620008d9565b6200018082826200018460201b62000a831760201c565b5050565b6200019b82826200023b60201b62000b201760201c565b6001600160e01b03620001af620003088216565b11156200021c5760405162461bcd60e51b815260206004820152603060248201527f4552433230566f7465733a20746f74616c20737570706c79207269736b73206f60448201526f766572666c6f77696e6720766f74657360801b60648201526084015b60405180910390fd5b62000235600962000beb6200030e60201b178362000325565b50505050565b6001600160a01b038216620002935760405162461bcd60e51b815260206004820152601f60248201527f45524332303a206d696e7420746f20746865207a65726f206164647265737300604482015260640162000213565b8060026000828254620002a79190620008ad565b90915550506001600160a01b038216600081815260208181526040808320805486019055518481527fddf252ad1be2c89b69c2b068fc378daa952ba7f163c4a11628f55a4df523b3ef910160405180910390a36200018060008383620004bc565b60025490565b60006200031c8284620008ad565b90505b92915050565b825460009081908181156200038557620003548762000346600185620008c3565b600091825260209091200190565b60408051808201909152905463ffffffff8116825264010000000090046001600160e01b031660208201526200039a565b60408051808201909152600080825260208201525b905080602001516001600160e01b03169350620003b884868860201c565b9250600082118015620003d15750805163ffffffff1643145b156200042857620003ed83620004d460201b62000bf71760201c565b620003ff8862000346600186620008c3565b80546001600160e01b03929092166401000000000263ffffffff909216919091179055620004ad565b8660405180604001604052806200044a436200054360201b62000c7a1760201c565b63ffffffff1681526020016200046b86620004d460201b62000bf71760201c565b6001600160e01b0390811690915282546001810184556000938452602093849020835194909301519091166401000000000263ffffffff909316929092179101555b5050935093915050565b505050565b620004b7838383620005aa60201b62000cf61760201c565b60006001600160e01b038211156200053f5760405162461bcd60e51b815260206004820152602760248201527f53616665436173743a2076616c756520646f65736e27742066697420696e20326044820152663234206269747360c81b606482015260840162000213565b5090565b600063ffffffff8211156200053f5760405162461bcd60e51b815260206004820152602660248201527f53616665436173743a2076616c756520646f65736e27742066697420696e203360448201526532206269747360d01b606482015260840162000213565b620005c2838383620004b760201b62000d281760201c565b6001600160a01b03838116600090815260076020526040808220548584168352912054620004b792918216911683818314801590620006015750600081115b15620004b7576001600160a01b038316156200068e576001600160a01b0383166000908152600860209081526040822082916200064b919062000719901b62000d2d178562000325565b91509150846001600160a01b031660008051602062002767833981519152838360405162000683929190918252602082015260400190565b60405180910390a250505b6001600160a01b03821615620004b7576001600160a01b038216600090815260086020908152604082208291620006d291906200030e901b62000beb178562000325565b91509150836001600160a01b03166000805160206200276783398151915283836040516200070a929190918252602082015260400190565b60405180910390a25050505050565b60006200031c8284620008c3565b634e487b7160e01b600052604160045260246000fd5b600181811c908216806200075257607f821691505b6020821081036200077357634e487b7160e01b600052602260045260246000fd5b50919050565b601f821115620004b757600081815260208120601f850160051c81016020861015620007a25750805b601f850160051c820191505b81811015620007c357828155600101620007ae565b505050505050565b81516001600160401b03811115620007e757620007e762000727565b620007ff81620007f884546200073d565b8462000779565b602080601f8311600181146200083757600084156200081e5750858301515b600019600386901b1c1916600185901b178555620007c3565b600085815260208120601f198616915b82811015620008685788860151825594840194600190910190840162000847565b5085821015620008875787850151600019600388901b60f8161c191681555b5050505050600190811b01905550565b634e487b7160e01b600052601160045260246000fd5b808201808211156200031f576200031f62000897565b818103818111156200031f576200031f62000897565b60805160a05160c05160e0516101005161012051611e3e62000929600039600061119a015260006111e9015260006111c40152600061111d01526000611147015260006111710152611e3e6000f3fe608060405234801561001057600080fd5b50600436106101785760003560e01c80636fcfff45116100d7578063a457c2d711610086578063d505accf11610063578063d505accf14610348578063dd62ed3e1461035b578063f1127ed81461039457005b8063a457c2d71461030f578063a9059cbb14610322578063c3cda5201461033557005b80638e539e8c116100b45780638e539e8c146102e157806395d89b41146102f45780639ab24eb0146102fc57005b80636fcfff451461027d57806370a08231146102a55780637ecebe00146102ce57005b80633644e51511610133578063587cde1e11610110578063587cde1e1461021d5780635c19a95c146102615780635d6418471461027457005b80633644e515146101ef57806339509351146101f75780633a46b1a81461020a57005b806318160ddd1161016157806318160ddd146101bb57806323b872dd146101cd578063313ce567146101e057005b806306fdde031461017a578063095ea7b314610198575b005b6101826103d1565b60405161018f9190611aea565b60405180910390f35b6101ab6101a6366004611b54565b610463565b604051901515815260200161018f565b6002545b60405190815260200161018f565b6101ab6101db366004611b7e565b61047d565b6040516012815260200161018f565b6101bf6104a1565b6101ab610205366004611b54565b6104b0565b6101bf610218366004611b54565b6104ef565b61024961022b366004611bba565b6001600160a01b039081166000908152600760205260409020541690565b6040516001600160a01b03909116815260200161018f565b61017861026f366004611bba565b61056e565b6101bf600a5481565b61029061028b366004611bba565b61057b565b60405163ffffffff909116815260200161018f565b6101bf6102b3366004611bba565b6001600160a01b031660009081526020819052604090205490565b6101bf6102dc366004611bba565b61059d565b6101bf6102ef366004611bd5565b6105bb565b610182610617565b6101bf61030a366004611bba565b610626565b6101ab61031d366004611b54565b6106ad565b6101ab610330366004611b54565b610757565b610178610343366004611bff565b610765565b610178610356366004611c57565b61089b565b6101bf610369366004611cc1565b6001600160a01b03918216600090815260016020908152604080832093909416825291909152205490565b6103a76103a2366004611cf4565b6109ff565b60408051825163ffffffff1681526020928301516001600160e01b0316928101929092520161018f565b6060600380546103e090611d34565b80601f016020809104026020016040519081016040528092919081815260200182805461040c90611d34565b80156104595780601f1061042e57610100808354040283529160200191610459565b820191906000526020600020905b81548152906001019060200180831161043c57829003601f168201915b5050505050905090565b600033610471818585610d39565b60019150505b92915050565b60003361048b858285610e91565b610496858585610f1d565b506001949350505050565b60006104ab611110565b905090565b3360008181526001602090815260408083206001600160a01b038716845290915281205490919061047190829086906104ea908790611d7e565b610d39565b60004382106105455760405162461bcd60e51b815260206004820152601f60248201527f4552433230566f7465733a20626c6f636b206e6f7420796574206d696e65640060448201526064015b60405180910390fd5b6001600160a01b03831660009081526008602052604090206105679083611237565b9392505050565b610578338261132e565b50565b6001600160a01b03811660009081526008602052604081205461047790610c7a565b6001600160a01b038116600090815260056020526040812054610477565b600043821061060c5760405162461bcd60e51b815260206004820152601f60248201527f4552433230566f7465733a20626c6f636b206e6f7420796574206d696e656400604482015260640161053c565b610477600983611237565b6060600480546103e090611d34565b6001600160a01b038116600090815260086020526040812054801561069a576001600160a01b0383166000908152600860205260409020610668600183611d91565b8154811061067857610678611da4565b60009182526020909120015464010000000090046001600160e01b031661069d565b60005b6001600160e01b03169392505050565b3360008181526001602090815260408083206001600160a01b03871684529091528120549091908381101561074a5760405162461bcd60e51b815260206004820152602560248201527f45524332303a2064656372656173656420616c6c6f77616e63652062656c6f7760448201527f207a65726f000000000000000000000000000000000000000000000000000000606482015260840161053c565b6104968286868403610d39565b600033610471818585610f1d565b834211156107b55760405162461bcd60e51b815260206004820152601d60248201527f4552433230566f7465733a207369676e61747572652065787069726564000000604482015260640161053c565b604080517fe48329057bfd03d55e49b547132e39cffd9c1820ad7b9d4c5307691425d15adf60208201526001600160a01b03881691810191909152606081018690526080810185905260009061082f906108279060a001604051602081830303815290604052805190602001206113bf565b858585611428565b905061083a81611450565b86146108885760405162461bcd60e51b815260206004820152601960248201527f4552433230566f7465733a20696e76616c6964206e6f6e636500000000000000604482015260640161053c565b610892818861132e565b50505050505050565b834211156108eb5760405162461bcd60e51b815260206004820152601d60248201527f45524332305065726d69743a206578706972656420646561646c696e65000000604482015260640161053c565b60007f6e71edae12b1b97f4d1f60370fef10105fa2faae0126114a169c64845d6126c988888861091a8c611450565b6040805160208101969096526001600160a01b0394851690860152929091166060840152608083015260a082015260c0810186905260e0016040516020818303038152906040528051906020012090506000610975826113bf565b9050600061098582878787611428565b9050896001600160a01b0316816001600160a01b0316146109e85760405162461bcd60e51b815260206004820152601e60248201527f45524332305065726d69743a20696e76616c6964207369676e61747572650000604482015260640161053c565b6109f38a8a8a610d39565b50505050505050505050565b60408051808201909152600080825260208201526001600160a01b0383166000908152600860205260409020805463ffffffff8416908110610a4357610a43611da4565b60009182526020918290206040805180820190915291015463ffffffff8116825264010000000090046001600160e01b0316918101919091529392505050565b610a8d8282610b20565b6002546001600160e01b031015610b0c5760405162461bcd60e51b815260206004820152603060248201527f4552433230566f7465733a20746f74616c20737570706c79207269736b73206f60448201527f766572666c6f77696e6720766f74657300000000000000000000000000000000606482015260840161053c565b610b1a6009610beb83611478565b50505050565b6001600160a01b038216610b765760405162461bcd60e51b815260206004820152601f60248201527f45524332303a206d696e7420746f20746865207a65726f206164647265737300604482015260640161053c565b8060026000828254610b889190611d7e565b90915550506001600160a01b038216600081815260208181526040808320805486019055518481527fddf252ad1be2c89b69c2b068fc378daa952ba7f163c4a11628f55a4df523b3ef910160405180910390a3610be7600083836115cc565b5050565b60006105678284611d7e565b60006001600160e01b03821115610c765760405162461bcd60e51b815260206004820152602760248201527f53616665436173743a2076616c756520646f65736e27742066697420696e203260448201527f3234206269747300000000000000000000000000000000000000000000000000606482015260840161053c565b5090565b600063ffffffff821115610c765760405162461bcd60e51b815260206004820152602660248201527f53616665436173743a2076616c756520646f65736e27742066697420696e203360448201527f3220626974730000000000000000000000000000000000000000000000000000606482015260840161053c565b6001600160a01b03838116600090815260076020526040808220548584168352912054610d28929182169116836115d7565b505050565b60006105678284611d91565b6001600160a01b038316610db45760405162461bcd60e51b8152602060048201526024808201527f45524332303a20617070726f76652066726f6d20746865207a65726f2061646460448201527f7265737300000000000000000000000000000000000000000000000000000000606482015260840161053c565b6001600160a01b038216610e305760405162461bcd60e51b815260206004820152602260248201527f45524332303a20617070726f766520746f20746865207a65726f20616464726560448201527f7373000000000000000000000000000000000000000000000000000000000000606482015260840161053c565b6001600160a01b0383811660008181526001602090815260408083209487168084529482529182902085905590518481527f8c5be1e5ebec7d5bd14f71427d1e84f3dd0314c0f7b2291e5b200ac8c7c3b925910160405180910390a3505050565b6001600160a01b038381166000908152600160209081526040808320938616835292905220546000198114610b1a5781811015610f105760405162461bcd60e51b815260206004820152601d60248201527f45524332303a20696e73756666696369656e7420616c6c6f77616e6365000000604482015260640161053c565b610b1a8484848403610d39565b6001600160a01b038316610f995760405162461bcd60e51b815260206004820152602560248201527f45524332303a207472616e736665722066726f6d20746865207a65726f20616460448201527f6472657373000000000000000000000000000000000000000000000000000000606482015260840161053c565b6001600160a01b0382166110155760405162461bcd60e51b815260206004820152602360248201527f45524332303a207472616e7366657220746f20746865207a65726f206164647260448201527f6573730000000000000000000000000000000000000000000000000000000000606482015260840161053c565b6001600160a01b038316600090815260208190526040902054818110156110a45760405162461bcd60e51b815260206004820152602660248201527f45524332303a207472616e7366657220616d6f756e742065786365656473206260448201527f616c616e63650000000000000000000000000000000000000000000000000000606482015260840161053c565b6001600160a01b03848116600081815260208181526040808320878703905593871680835291849020805487019055925185815290927fddf252ad1be2c89b69c2b068fc378daa952ba7f163c4a11628f55a4df523b3ef910160405180910390a3610b1a8484846115cc565b6000306001600160a01b037f00000000000000000000000000000000000000000000000000000000000000001614801561116957507f000000000000000000000000000000000000000000000000000000000000000046145b1561119357507f000000000000000000000000000000000000000000000000000000000000000090565b50604080517f00000000000000000000000000000000000000000000000000000000000000006020808301919091527f0000000000000000000000000000000000000000000000000000000000000000828401527f000000000000000000000000000000000000000000000000000000000000000060608301524660808301523060a0808401919091528351808403909101815260c0909201909252805191012090565b81546000908181600581111561129157600061125284611714565b61125c9085611d91565b600088815260209020909150869082015463ffffffff1611156112815780915061128f565b61128c816001611d7e565b92505b505b808210156112de5760006112a583836117fc565b600088815260209020909150869082015463ffffffff1611156112ca578091506112d8565b6112d5816001611d7e565b92505b50611291565b801561131857611301866112f3600184611d91565b600091825260209091200190565b5464010000000090046001600160e01b031661131b565b60005b6001600160e01b03169695505050505050565b6001600160a01b038281166000818152600760208181526040808420805485845282862054949093528787167fffffffffffffffffffffffff00000000000000000000000000000000000000008416811790915590519190951694919391928592917f3134e8a2e6d97e929a7e54011ea5485d7d196dd5f0ba4d4ef95803e8e3fc257f9190a4610b1a8284836115d7565b60006104776113cc611110565b836040517f19010000000000000000000000000000000000000000000000000000000000006020820152602281018390526042810182905260009060620160405160208183030381529060405280519060200120905092915050565b600080600061143987878787611817565b91509150611446816118db565b5095945050505050565b6001600160a01b03811660009081526005602052604090208054600181018255905b50919050565b825460009081908181156114c557611495876112f3600185611d91565b60408051808201909152905463ffffffff8116825264010000000090046001600160e01b031660208201526114da565b60408051808201909152600080825260208201525b905080602001516001600160e01b031693506114fa84868863ffffffff16565b92506000821180156115125750805163ffffffff1643145b156115575761152083610bf7565b61152f886112f3600186611d91565b80546001600160e01b03929092166401000000000263ffffffff9092169190911790556115c2565b86604051806040016040528061156c43610c7a565b63ffffffff16815260200161158086610bf7565b6001600160e01b0390811690915282546001810184556000938452602093849020835194909301519091166401000000000263ffffffff909316929092179101555b5050935093915050565b610d28838383610cf6565b816001600160a01b0316836001600160a01b0316141580156115f95750600081115b15610d28576001600160a01b03831615611687576001600160a01b0383166000908152600860205260408120819061163490610d2d85611478565b91509150846001600160a01b03167fdec2bacdd2f05b59de34da9b523dff8be42e5e38e818c82fdb0bae774387a724838360405161167c929190918252602082015260400190565b60405180910390a250505b6001600160a01b03821615610d28576001600160a01b038216600090815260086020526040812081906116bd90610beb85611478565b91509150836001600160a01b03167fdec2bacdd2f05b59de34da9b523dff8be42e5e38e818c82fdb0bae774387a7248383604051611705929190918252602082015260400190565b60405180910390a25050505050565b60008160000361172657506000919050565b6000600161173384611a40565b901c6001901b9050600181848161174c5761174c611dba565b048201901c9050600181848161176457611764611dba565b048201901c9050600181848161177c5761177c611dba565b048201901c9050600181848161179457611794611dba565b048201901c905060018184816117ac576117ac611dba565b048201901c905060018184816117c4576117c4611dba565b048201901c905060018184816117dc576117dc611dba565b048201901c9050610567818285816117f6576117f6611dba565b04611ad4565b600061180b6002848418611dd0565b61056790848416611d7e565b6000807f7fffffffffffffffffffffffffffffff5d576e7357a4501ddfe92f46681b20a083111561184e57506000905060036118d2565b6040805160008082526020820180845289905260ff881692820192909252606081018690526080810185905260019060a0016020604051602081039080840390855afa1580156118a2573d6000803e3d6000fd5b5050604051601f1901519150506001600160a01b0381166118cb576000600192509250506118d2565b9150600090505b94509492505050565b60008160048111156118ef576118ef611df2565b036118f75750565b600181600481111561190b5761190b611df2565b036119585760405162461bcd60e51b815260206004820152601860248201527f45434453413a20696e76616c6964207369676e61747572650000000000000000604482015260640161053c565b600281600481111561196c5761196c611df2565b036119b95760405162461bcd60e51b815260206004820152601f60248201527f45434453413a20696e76616c6964207369676e6174757265206c656e67746800604482015260640161053c565b60038160048111156119cd576119cd611df2565b036105785760405162461bcd60e51b815260206004820152602260248201527f45434453413a20696e76616c6964207369676e6174757265202773272076616c60448201527f7565000000000000000000000000000000000000000000000000000000000000606482015260840161053c565b600080608083901c15611a5557608092831c92015b604083901c15611a6757604092831c92015b602083901c15611a7957602092831c92015b601083901c15611a8b57601092831c92015b600883901c15611a9d57600892831c92015b600483901c15611aaf57600492831c92015b600283901c15611ac157600292831c92015b600183901c156104775760010192915050565b6000818310611ae35781610567565b5090919050565b600060208083528351808285015260005b81811015611b1757858101830151858201604001528201611afb565b506000604082860101526040601f19601f8301168501019250505092915050565b80356001600160a01b0381168114611b4f57600080fd5b919050565b60008060408385031215611b6757600080fd5b611b7083611b38565b946020939093013593505050565b600080600060608486031215611b9357600080fd5b611b9c84611b38565b9250611baa60208501611b38565b9150604084013590509250925092565b600060208284031215611bcc57600080fd5b61056782611b38565b600060208284031215611be757600080fd5b5035919050565b803560ff81168114611b4f57600080fd5b60008060008060008060c08789031215611c1857600080fd5b611c2187611b38565b95506020870135945060408701359350611c3d60608801611bee565b92506080870135915060a087013590509295509295509295565b600080600080600080600060e0888a031215611c7257600080fd5b611c7b88611b38565b9650611c8960208901611b38565b95506040880135945060608801359350611ca560808901611bee565b925060a0880135915060c0880135905092959891949750929550565b60008060408385031215611cd457600080fd5b611cdd83611b38565b9150611ceb60208401611b38565b90509250929050565b60008060408385031215611d0757600080fd5b611d1083611b38565b9150602083013563ffffffff81168114611d2957600080fd5b809150509250929050565b600181811c90821680611d4857607f821691505b60208210810361147257634e487b7160e01b600052602260045260246000fd5b634e487b7160e01b600052601160045260246000fd5b8082018082111561047757610477611d68565b8181038181111561047757610477611d68565b634e487b7160e01b600052603260045260246000fd5b634e487b7160e01b600052601260045260246000fd5b600082611ded57634e487b7160e01b600052601260045260246000fd5b500490565b634e487b7160e01b600052602160045260246000fdfea26469706673582212200793b223517226c7aa99d003e02469f3b54991a980ab40985f8a4621fe98d02064736f6c63430008110033dec2bacdd2f05b59de34da9b523dff8be42e5e38e818c82fdb0bae774387a724",
  "linkReferences": {},
  "deployedLinkReferences": {}
}